:100000000C9462000C948A000C948A000C948A0070
:100010000C948A000C948A000C948A000C948A0038
:100020000C948A000C948A000C948A000C948A0028
:100030000C948A000C948A000C948A000C948A0018
:100040000C9404030C948A000C9474030C944E03D7
:100050000C948A000C948A000C948A000C948A00F8
:100060000C948A000C948A000000000023002600F3
:10007000290000000000240027002A0000000000E2
:10008000250028002B0004040404040404040202D4
:100090000202020203030303030301020408102007
:1000A0004080010204081020010204081020000012
:1000B0000008000201000003040700000000000027
:1000C0000000D50511241FBECFEFD8E0DEBFCDBFA5
:1000D00011E0A0E0B1E0E6E4FDE002C005900D9281
:1000E000A232B107D9F722E0A2E2B1E001C01D922D
:1000F000A731B207E1F710E0C2E6D0E004C02197D3
:10010000FE010E949606C136D107C9F70E94A603D8
:100110000C94A1060C940000E3EBF0E09491EFE95D
:10012000F0E02491EBE8F0E0E491EE2309F43CC028
:10013000992339F1933091F038F49130A9F092304D
:1001400001F594B59F7D12C0973091F09830A1F0E1
:100150009430B9F4909180009F7D03C0909180000D
:100160009F77909380000DC094B59F7794BD09C090
:100170009091B0009F7703C09091B0009F7D9093C5
:10018000B000F0E0EE0FFF1FE458FF4FA591B491CF
:100190009FB7F894811104C08C912095282302C048
:1001A000EC912E2B2C939FBF0895CF93DF93EFE913
:1001B000F0E09491EBE8F0E02491222361F130E04B
:1001C000220F331FF901EE58FF4FA591B491F901A9
:1001D000E458FF4FC591D491811109C02FB7F8940D
:1001E0008C91909589238C93E8819E230BC082305B
:1001F00061F42FB7F8948C91392F309583238C9329
:10020000E8819E2B98832FBF06C08FB7F894EC919E
:100210009E2B9C938FBFDF91CF9108953FB7F894A9
:100220008091760190917701A0917801B091790148
:1002300026B5A89B05C02F3F19F00196A11DB11D41
:100240003FBFBA2FA92F982F8827820F911DA11D7C
:10025000B11DBC01CD0142E0660F771F881F991FB9
:100260004A95D1F708958F929F92AF92BF92CF9205
:10027000DF92EF92FF926B017C010E940E014B0115
:100280005C01C114D104E104F104F1F00E940E01FB
:10029000DC01CB0188199909AA09BB09883E934062
:1002A000A105B10570F321E0C21AD108E108F108F7
:1002B00088EE880E83E0981EA11CB11CC114D104E5
:1002C000E104F10419F7DDCFFF90EF90DF90CF90BC
:1002D000BF90AF909F908F900895CF92DF92EF9252
:1002E000FF920F931F93CF93DF936C017A018B01E1
:1002F000C0E0D0E0CE15DF0581F0D8016D918D0111
:10030000D601ED91FC910190F081E02DC601099597
:10031000892B11F02196EECF7E01C701DF91CF919D
:100320001F910F91FF90EF90DF90CF900895089567
:1003300080E090E00895FC01538D448D252F30E03E
:10034000842F90E0821B930B541710F0CF960895E2
:1003500001970895FC01918D828D981761F0828D2F
:10036000DF01A80FB11D5D968C91928D9F5F9F73E9
:10037000928F90E008958FEF9FEF0895FC01918D8B
:10038000828D981731F0828DE80FF11D858D90E0F8
:1003900008958FEF9FEF0895FC01918D228D892F95
:1003A00090E0805C9F4F821B91098F73992708957D
:1003B0008AE791E00E94CC0121E0892B09F420E03A
:1003C000822F0895FC01848DDF01A80FB11DA35A6F
:1003D000BF4F2C91848D90E001968F739927848F65
:1003E000A689B7892C93A089B1898C918370806488
:1003F0008C93938D848D981306C00288F389E02D29
:1004000080818F7D80830895EF92FF920F931F93D9
:10041000CF93DF93EC0181E0888F9B8D8C8D9813B7
:1004200005C0E889F989808185FD26C0F62E0B8DEF
:1004300010E00F5F1F4F0F731127E02E8C8DE81215
:100440000CC00FB607FCFACFE889F989808185FFD7
:10045000F5CFCE010E94E201F1CF8B8DFE01E80FB6
:10046000F11DE35AFF4FF0829FB7F8940B8FEA8992
:10047000FB89808180620AC09FB7F894EE89FF896A
:100480006083E889F98980818370806480839FBF5D
:1004900081E090E0DF91CF911F910F91FF90EF905D
:1004A0000895CF93DF93EC01888D8823C9F0EA8902
:1004B000FB89808185FD05C0A889B9898C9186FD5D
:1004C0000FC00FB607FCF5CF808185FFF2CFA8895A
:1004D000B9898C9185FFEDCFCE010E94E201E7CF73
:1004E000DF91CF91089580E090E0892B29F00E9460
:1004F000D80181110C9400000895009769F0FC0167
:1005000001900020E9F73197AF01481B590BBC015E
:100510008AE791E00C946D0180E090E008958F925D
:100520009F92AF92BF92CF92DF92EF92FF920F9382
:100530001F93CF93DF93CDB7DEB7A1970FB6F89493
:10054000DEBF0FBECDBF6B017C0197FF2BC06DE2FC
:100550008AE791E00E9404028C0122273327A90137
:100560002C193D094E095F0919A2CE0181967C0123
:100570009AE0892E912CA12CB12CCA01B901A501B8
:1005800094010E942106605DF70162937F012115AD
:1005900031054105510589F7CF010E947D02800F89
:1005A000911F1DC09B01AC0119A28E010F5D1F4F51
:1005B0008AE0C82ED12CE12CF12CCA01B901A70187
:1005C00096010E942106605DF80162938F0121155A
:1005D00031054105510589F7CF010E947D02A196A1
:1005E0000FB6F894DEBF0FBECDBFDF91CF911F9144
:1005F0000F91FF90EF90DF90CF90BF90AF909F90C2
:100600008F9008950E949C061F920F920FB60F9232
:1006100011242F933F938F939F93AF93BF93809118
:10062000720190917301A0917401B09175013091A4
:10063000710123E0230F2D3720F40196A11DB11D78
:1006400005C026E8230F0296A11DB11D209371015C
:100650008093720190937301A0937401B09375011C
:100660008091760190917701A0917801B091790104
:100670000196A11DB11D8093760190937701A093FF
:100680007801B0937901BF91AF919F918F913F9184
:100690002F910F900FBE0F901F9018951F920F92E1
:1006A0000FB60F9211242F933F934F935F936F9345
:1006B0007F938F939F93AF93BF93EF93FF938AE7BB
:1006C00091E00E94E201FF91EF91BF91AF919F9164
:1006D0008F917F916F915F914F913F912F910F90EB
:1006E0000FBE0F901F9018951F920F920FB60F928A
:1006F00011242F938F939F93EF93FF93E0918A019F
:10070000F0918B018081E0919001F091910182FD47
:1007100012C09081809193018F5F8F73209194011B
:10072000821751F0E0919301F0E0E658FE4F958F6B
:100730008093930101C08081FF91EF919F918F91F0
:100740002F910F900FBE0F901F901895CF93DF93AE
:10075000CDB7DEB72A970FB6F894DEBF0FBECDBF78
:10076000789484B5826084BD84B5816084BD85B58C
:10077000826085BD85B5816085BD80916E00816098
:1007800080936E001092810080918100826080933E
:100790008100809181008160809381008091800040
:1007A0008160809380008091B10084608093B1006B
:1007B0008091B00081608093B00080917A00846065
:1007C00080937A0080917A00826080937A00809191
:1007D0007A00816080937A0080917A0080688093AB
:1007E0007A001092C100E0918A01F0918B0182E0C1
:1007F0008083E0918601F09187011082E091880169
:10080000F09189018FEC808310929201E0918E012A
:10081000F0918F0186E08083E0918C01F0918D0151
:10082000808180618083E0918C01F0918D018081D5
:1008300088608083E0918C01F0918D0180818068D7
:100840008083E0918C01F0918D0180818F7D808388
:1008500040E9242E332433945AE0C52ED12CE12CC8
:10086000F12CEFE9F0E01491EBE8F0E08491E82F4F
:10087000F0E0EE0FFF1FE859FF4F8590949081E064
:100880000E94D50080E00E948C0062E170E080E070
:1008900090E00E94330181E00E948C0080E00E9481
:1008A000D50080E293E0D4012C91212319F0019727
:1008B000D1F752C080E991E0F4012081212319F49D
:1008C0000197D1F749C080E991E0D4012C9121230F
:1008D00019F00197D1F740C0B12C00E020E8A22E1A
:1008E00040E050E080E991E020E931E060E0A8E2FA
:1008F000F401B081B12329F5662319F1A83261F41E
:100900008217930708F49C01A101421B530B5695D3
:1009100047955695479507C0B901641B750B681735
:10092000790708F00A29A69449F4EB2DF0E0EE5D72
:10093000FE4F0087B39400E080E8A82EA15080E924
:1009400091E0019749F06B2FA111D2CF81E00E9475
:10095000D50081E00E948C00F0912A01FF77F98395
:10096000F0932A0180912C018F778D8380932C0145
:100970006F2F70E080E090E00E94520660932201A9
:100980007093230180932401909325012D81622F80
:1009900070E080E090E00E94520660932601709320
:1009A000270180932801909329013D81832F90E0B6
:1009B0009093700180936F015981452F50E05093BF
:1009C0006E0140936D0180E480937C0080917A00F9
:1009D000806480937A0080917A0086FDFCCFA0919C
:1009E000780080917900B0E0B82B24E630E00E94D6
:1009F0008F062FEF33E040E050E00E940206A7E5AB
:100A0000B1E0BA83A983E3E4F1E0F887EF838FE2F2
:100A100091E09E838D83FC0103E411E04D0169E0C8
:100A200070E0D4015096AD90BC9051975396BC9213
:100A3000AE925297D8015096AD90BC905197539674
:100A4000BC92AE925297A088B188B38AA28A6150B4
:100A50007109B2E08B1A91080250110932976115A1
:100A60007105F9F680916F01909170019093580192
:100A70008093570180916D0190916E019093440194
:100A8000809343013093300120932F01812C912CCE
:100A90005401412C512C320160E070E0CB01E9811E
:100AA000FA8121913191FA83E9838901330F220B75
:100AB000330B600F711F821F931FAF81B8852D917B
:100AC0003D91B887AF838901330F220B330B400E62
:100AD000511E621E731EED81FE8121913191FE83B4
:100AE000ED838901330F220B330B800E911EA21E62
:100AF000B31E2BE631E049815A812417350779F678
:100B0000A70196010E94020629833A834B835C83E6
:100B10003093700120936F01C301B201A7019601C8
:100B20000E94020630936E0120936D01C501B4014D
:100B3000A70196010E94020630936C0120936B017D
:100B4000A981BA81BD01BB0F880B990B0E948F024E
:100B500082E191E00E947D0260916D0170916E01D1
:100B6000072E000C880B990B0E948F0287E191E001
:100B70000E947D0260916B0170916C01072E000C48
:100B8000880B990B0E948F028CE191E00E947D02FC
:100B90008FE191E00E947D026FE070E080E090E0E4
:100BA0000E9433010E9473025CCEEAE7F1E01382F7
:100BB000128288EE93E0A0E0B0E084839583A68360
:100BC000B78384E091E09183808385EC90E0958702
:100BD000848784EC90E09787868780EC90E0918B07
:100BE000808B81EC90E0938B828B82EC90E0958BF4
:100BF000848B86EC90E0978B868B118E128E138EF1
:100C0000148E0895052E97FB1EF400940E94190679
:100C100057FD07D00E94210607FC03D04EF40C9428
:100C2000190650954095309521953F4F4F4F5F4F96
:100C3000089590958095709561957F4F8F4F9F4F48
:100C40000895A1E21A2EAA1BBB1BFD010DC0AA1F0D
:100C5000BB1FEE1FFF1FA217B307E407F50720F025
:100C6000A21BB30BE40BF50B661F771F881F991FA0
:100C70001A9469F760957095809590959B01AC01E9
:100C8000BD01CF010895A29FB001B39FC001A39FF2
:100C9000700D811D1124911DB29F700D811D1124B5
:100CA000911D0895E89409C097FB3EF490958095B6
:100CB000709561957F4F8F4F9F4F9923A9F0F92F22
:100CC00096E9BB279395F695879577956795B795A0
:100CD000F111F8CFFAF4BB0F11F460FF1BC06F5F86
:100CE0007F4F8F4F9F4F16C0882311F096E911C098
:100CF000772321F09EE8872F762F05C0662371F0B9
:100D000096E8862F70E060E02AF09A95660F771FCC
:100D1000881FDAF7880F9695879597F908950E94AE
:100D20004306B7FF0895821B930B0895EE0FFF1F34
:100D30000590F491E02D099481E090E0F8940C94F2
:060D4000A106F894FFCFAC
:100D46000000000004026D019B015102CC01AA01C2
:100D5600BE01204320090020252009002025000D82
:020D66000A0081
:107E0000112484B714BE81FFF0D085E080938100F7
:107E100082E08093C00088E18093C10086E0809377
:107E2000C20080E18093C4008EE0C9D0259A86E02C
:107E300020E33CEF91E0309385002093840096BBD3
:107E4000B09BFECF1D9AA8958150A9F7CC24DD24C4
:107E500088248394B5E0AB2EA1E19A2EF3E0BF2EE7
:107E6000A2D0813461F49FD0082FAFD0023811F036
:107E7000013811F484E001C083E08DD089C08234E0
:107E800011F484E103C0853419F485E0A6D080C0E4
:107E9000853579F488D0E82EFF2485D0082F10E0AE
:107EA000102F00270E291F29000F111F8ED06801E7
:107EB0006FC0863521F484E090D080E0DECF843638
:107EC00009F040C070D06FD0082F6DD080E0C81688
:107ED00080E7D80618F4F601B7BEE895C0E0D1E017
:107EE00062D089930C17E1F7F0E0CF16F0E7DF06D8
:107EF00018F0F601B7BEE89568D007B600FCFDCFD4
:107F0000A601A0E0B1E02C9130E011968C91119780
:107F100090E0982F8827822B932B1296FA010C0160
:107F200087BEE89511244E5F5F4FF1E0A038BF0790
:107F300051F7F601A7BEE89507B600FCFDCF97BE46
:107F4000E89526C08437B1F42ED02DD0F82E2BD052
:107F50003CD0F601EF2C8F010F5F1F4F84911BD097
:107F6000EA94F801C1F70894C11CD11CFA94CF0C13
:107F7000D11C0EC0853739F428D08EE10CD085E9AC
:107F80000AD08FE07ACF813511F488E018D01DD067
:107F900080E101D065CF982F8091C00085FFFCCF94
:107FA0009093C60008958091C00087FFFCCF809118
:107FB000C00084FD01C0A8958091C6000895E0E648
:107FC000F0E098E1908380830895EDDF803219F02E
:107FD00088E0F5DFFFCF84E1DECF1F93182FE3DFCA
:107FE0001150E9F7F2DF1F91089580E0E8DFEE27F6
:047FF000FF270994CA
:027FFE00040479
:0400000300007E007B
:00000001FF
