:100000000C9462000C948A000C948A000C948A0070
:100010000C948A000C948A000C948A000C948A0038
:100020000C948A000C948A000C948A000C948A0028
:100030000C948A000C948A000C948A000C948A0018
:100040000C94AD020C948A000C941D030C94F702DE
:100050000C948A000C948A000C948A000C948A00F8
:100060000C948A000C948A000000000023002600F3
:10007000290000000000240027002A0000000000E2
:10008000250028002B0004040404040404040202D4
:100090000202020203030303030301020408102007
:1000A0004080010204081020010204081020000012
:1000B0000008000201000003040700000000000027
:1000C0000000850411241FBECFEFD8E0DEBFCDBFF6
:1000D00011E0A0E0B1E0EAE7FAE002C005900D927D
:1000E000A231B107D9F721E0A2E1B1E001C01D9230
:1000F000AD3DB207E1F710E0C2E6D0E004C02197C1
:10010000FE010E943005C136D107C9F70E944F0396
:100110000C943B050C940000E3EBF0E09491EFE9C4
:10012000F0E02491EBE8F0E0E491EE2309F43CC028
:10013000992339F1933091F038F49130A9F092304D
:1001400001F594B59F7D12C0973091F09830A1F0E1
:100150009430B9F4909180009F7D03C0909180000D
:100160009F77909380000DC094B59F7794BD09C090
:100170009091B0009F7703C09091B0009F7D9093C5
:10018000B000F0E0EE0FFF1FE458FF4FA591B491CF
:100190009FB7F894811104C08C912095282302C048
:1001A000EC912E2B2C939FBF0895CF93DF93EFE913
:1001B000F0E09491EBE8F0E02491222361F130E04B
:1001C000220F331FF901EE58FF4FA591B491F901A9
:1001D000E458FF4FC591D491811109C02FB7F8940D
:1001E0008C91909589238C93E8819E230BC082305B
:1001F00061F42FB7F8948C91392F309583238C9329
:10020000E8819E2B98832FBF06C08FB7F894EC919E
:100210009E2B9C938FBFDF91CF9108953FB7F894A9
:100220008091D9019091DA01A091DB01B091DC01BC
:1002300026B5A89B05C02F3F19F00196A11DB11D41
:100240003FBFBA2FA92F982F8827820F911DA11D7C
:10025000B11DBC01CD0142E0660F771F881F991FB9
:100260004A95D1F708958F929F92AF92BF92CF9205
:10027000DF92EF92FF926B017C010E940E014B0115
:100280005C01C114D104E104F104F1F00E940E01FB
:10029000DC01CB0188199909AA09BB09883E934062
:1002A000A105B10570F321E0C21AD108E108F108F7
:1002B00088EE880E83E0981EA11CB11CC114D104E5
:1002C000E104F10419F7DDCFFF90EF90DF90CF90BC
:1002D000BF90AF909F908F900895CF92DF92EF9252
:1002E000FF920F931F93CF93DF936C017A018B01E1
:1002F000C0E0D0E0CE15DF0581F0D8016D918D0111
:10030000D601ED91FC910190F081E02DC601099597
:10031000892B11F02196EECF7E01C701DF91CF919D
:100320001F910F91FF90EF90DF90CF900895089567
:1003300080E090E00895FC01538D448D252F30E03E
:10034000842F90E0821B930B541710F0CF960895E2
:1003500001970895FC01918D828D981761F0828D2F
:10036000DF01A80FB11D5D968C91928D9F5F9F73E9
:10037000928F90E008958FEF9FEF0895FC01918D8B
:10038000828D981731F0828DE80FF11D858D90E0F8
:1003900008958FEF9FEF0895FC01918D228D892F95
:1003A00090E0805C9F4F821B91098F73992708957D
:1003B00086E291E00E94CC0121E0892B09F420E043
:1003C000822F0895FC01848DDF01A80FB11DA35A6F
:1003D000BF4F2C91848D90E001968F739927848F65
:1003E000A689B7892C93A089B1898C918370806488
:1003F0008C93938D848D981306C00288F389E02D29
:1004000080818F7D80830895EF92FF920F931F93D9
:10041000CF93DF93EC0181E0888F9B8D8C8D9813B7
:1004200005C0E889F989808185FD26C0F62E0B8DEF
:1004300010E00F5F1F4F0F731127E02E8C8DE81215
:100440000CC00FB607FCFACFE889F989808185FFD7
:10045000F5CFCE010E94E201F1CF8B8DFE01E80FB6
:10046000F11DE35AFF4FF0829FB7F8940B8FEA8992
:10047000FB89808180620AC09FB7F894EE89FF896A
:100480006083E889F98980818370806480839FBF5D
:1004900081E090E0DF91CF911F910F91FF90EF905D
:1004A0000895CF93DF93EC01888D8823C9F0EA8902
:1004B000FB89808185FD05C0A889B9898C9186FD5D
:1004C0000FC00FB607FCF5CF808185FFF2CFA8895A
:1004D000B9898C9185FFEDCFCE010E94E201E7CF73
:1004E000DF91CF91089580E090E0892B29F00E9460
:1004F000D80181110C94000008950F931F93E4E23A
:10050000F1E0A2E1B1E0329122913383228321E034
:10051000E231F207C1F7909313018093120160E07A
:1005200070E0CB010D911D91012E000C220B330BBD
:10053000600F711F821F931F21E0A632B20791F74F
:100540002AE030E040E050E00E94B204CA01B90164
:100550001F910F9108950E9436051F920F920FB6BA
:100560000F9211242F933F938F939F93AF93BF9339
:100570008091D5019091D601A091D701B091D80179
:100580003091D40123E0230F2D3720F40196A11DD3
:10059000B11D05C026E8230F0296A11DB11D2093B1
:1005A000D4018093D5019093D601A093D701B09345
:1005B000D8018091D9019091DA01A091DB01B0912D
:1005C000DC010196A11DB11D8093D9019093DA0140
:1005D000A093DB01B093DC01BF91AF919F918F910C
:1005E0003F912F910F900FBE0F901F9018951F9263
:1005F0000F920FB60F9211242F933F934F935F9357
:100600006F937F938F939F93AF93BF93EF93FF93DA
:1006100086E291E00E94E201FF91EF91BF91AF91DC
:100620009F918F917F916F915F914F913F912F910A
:100630000F900FBE0F901F9018951F920F920FB63C
:100640000F9211242F938F939F93EF93FF93E09139
:100650003601F09137018081E0913C01F0913D013C
:1006600082FD12C0908180913F018F5F8F73209136
:100670004001821751F0E0913F01F0E0EA5DFE4F4A
:10068000958F80933F0101C08081FF91EF919F91F1
:100690008F912F910F900FBE0F901F901895789407
:1006A00084B5826084BD84B5816084BD85B5826077
:1006B00085BD85B5816085BD80916E008160809328
:1006C0006E00109281008091810082608093810091
:1006D00080918100816080938100809180008160A1
:1006E000809380008091B10084608093B1008091FC
:1006F000B00081608093B00080917A008460809324
:100700007A0080917A00826080937A0080917A00EA
:10071000816080937A0080917A00806880937A006B
:100720001092C100E0913601F091370182E08083A0
:10073000E0913201F09133011082E0913401F091A7
:1007400035018FEC808310923E01E0913A01F091E7
:100750003B0186E08083E0913801F091390180818E
:1007600080618083E0913801F09139018081886057
:100770008083E0913801F091390180818068808325
:10078000E0913801F091390180818F7D80832FE9DC
:10079000822E20E0922E0BE810E030E9E32EFF24B9
:1007A000F394F401D490F8018491E82FF0E0EE0F77
:1007B000FF1FE859FF4FC591D49181E00E94D500F9
:1007C00080E00E948C0062E170E080E090E00E9496
:1007D000330181E00E948C0080E00E94D50080E21D
:1007E00093E028812D2119F00197D9F74DC080E9B8
:1007F00091E028812D2119F40197D9F745C080E9AE
:1008000091E028812D2119F00197D9F73DC0C12C25
:10081000A0E020E840E050E080E991E060E971E08C
:10082000E0E038E2B881BD2121F5EE2311F1383244
:1008300061F48617970708F4BC01A701461B570B04
:10084000569547955695479507C0FB01E41BF50B58
:10085000E817F90708F0A22B269541F4EC2DF0E0FB
:10086000ED53FE4FA087C394A0E020E8315080E90B
:1008700091E0019749F0EB2F3111D4CF81E00E9434
:10088000D50081E00E948C008091CB018F77D82E1B
:100890008093CB018091CD018F77B82E8093CD01CD
:1008A0006D2D70E080E090E00E94F3046093C3013E
:1008B0007093C4018093C5019093C6016B2D70E0C5
:1008C00080E090E00E94F3046093C7017093C80138
:1008D0008093C9019093CA018B2D90E00E947D0204
:1008E0007093D3016093D2018D2D90E00E947D0220
:1008F0007093D1016093D00162E370E080E090E0FA
:100900000E9433010E9473024CCFE6E2F1E01382B1
:10091000128288EE93E0A0E0B0E084839583A68302
:10092000B78384E091E09183808385EC90E09587A4
:10093000848784EC90E09787868780EC90E0918BA9
:10094000808B81EC90E0938B828B82EC90E0958B96
:10095000848B86EC90E0978B868B118E128E138E93
:10096000148E0895052E97FB1EF400940E94C9046E
:1009700057FD07D00E94D10407FC03D04EF40C941D
:10098000C90450954095309521953F4F4F4F5F4F8B
:10099000089590958095709561957F4F8F4F9F4FEB
:1009A0000895A1E21A2EAA1BBB1BFD010DC0AA1FB0
:1009B000BB1FEE1FFF1FA217B307E407F50720F0C8
:1009C000A21BB30BE40BF50B661F771F881F991F43
:1009D0001A9469F760957095809590959B01AC018C
:1009E000BD01CF010895E89409C097FB3EF49095AE
:1009F0008095709561957F4F8F4F9F4F9923A9F0F8
:100A0000F92F96E9BB279395F69587957795679586
:100A1000B795F111F8CFFAF4BB0F11F460FF1BC0CA
:100A20006F5F7F4F8F4F9F4F16C0882311F096E95D
:100A300011C0772321F09EE8872F762F05C066230B
:100A400071F096E8862F70E060E02AF09A95660FC4
:100A5000771F881FDAF7880F9695879597F908957D
:100A6000EE0FFF1F0590F491E02D099481E090E0D6
:0A0A7000F8940C943B05F894FFCFB6
:100A7A000000000004026D019B015102CC01AA0191
:020A8A00BE01AB
:107E0000112484B714BE81FFF0D085E080938100F7
:107E100082E08093C00088E18093C10086E0809377
:107E2000C20080E18093C4008EE0C9D0259A86E02C
:107E300020E33CEF91E0309385002093840096BBD3
:107E4000B09BFECF1D9AA8958150A9F7CC24DD24C4
:107E500088248394B5E0AB2EA1E19A2EF3E0BF2EE7
:107E6000A2D0813461F49FD0082FAFD0023811F036
:107E7000013811F484E001C083E08DD089C08234E0
:107E800011F484E103C0853419F485E0A6D080C0E4
:107E9000853579F488D0E82EFF2485D0082F10E0AE
:107EA000102F00270E291F29000F111F8ED06801E7
:107EB0006FC0863521F484E090D080E0DECF843638
:107EC00009F040C070D06FD0082F6DD080E0C81688
:107ED00080E7D80618F4F601B7BEE895C0E0D1E017
:107EE00062D089930C17E1F7F0E0CF16F0E7DF06D8
:107EF00018F0F601B7BEE89568D007B600FCFDCFD4
:107F0000A601A0E0B1E02C9130E011968C91119780
:107F100090E0982F8827822B932B1296FA010C0160
:107F200087BEE89511244E5F5F4FF1E0A038BF0790
:107F300051F7F601A7BEE89507B600FCFDCF97BE46
:107F4000E89526C08437B1F42ED02DD0F82E2BD052
:107F50003CD0F601EF2C8F010F5F1F4F84911BD097
:107F6000EA94F801C1F70894C11CD11CFA94CF0C13
:107F7000D11C0EC0853739F428D08EE10CD085E9AC
:107F80000AD08FE07ACF813511F488E018D01DD067
:107F900080E101D065CF982F8091C00085FFFCCF94
:107FA0009093C60008958091C00087FFFCCF809118
:107FB000C00084FD01C0A8958091C6000895E0E648
:107FC000F0E098E1908380830895EDDF803219F02E
:107FD00088E0F5DFFFCF84E1DECF1F93182FE3DFCA
:107FE0001150E9F7F2DF1F91089580E0E8DFEE27F6
:047FF000FF270994CA
:027FFE00040479
:0400000300007E007B
:00000001FF
