:100000000C9462000C948A000C948A000C948A0070
:100010000C948A000C948A000C948A000C948A0038
:100020000C948A000C948A000C948A000C948A0028
:100030000C948A000C948A000C948A000C948A0018
:100040000C941B030C948A000C948B030C94650392
:100050000C948A000C948A000C948A000C948A00F8
:100060000C948A000C948A000000000023002600F3
:10007000290000000000240027002A0000000000E2
:10008000250028002B0004040404040404040202D4
:100090000202020203030303030301020408102007
:1000A0004080010204081020010204081020000012
:1000B0000008000201000003040700000000000027
:1000C0000000140611241FBECFEFD8E0DEBFCDBF65
:1000D00011E0A0E0B1E0E4ECFDE002C005900D927B
:1000E000A432B107D9F722E0A4E2B1E001C01D9229
:1000F000AF32B207E1F710E0C2E6D0E004C02197CA
:10010000FE010E94D506C136D107C9F70E94BD0382
:100110000C94E0060C940000E3EBF0E09491EFE91E
:10012000F0E02491EBE8F0E0E491EE2309F43CC028
:10013000992339F1933091F038F49130A9F092304D
:1001400001F594B59F7D12C0973091F09830A1F0E1
:100150009430B9F4909180009F7D03C0909180000D
:100160009F77909380000DC094B59F7794BD09C090
:100170009091B0009F7703C09091B0009F7D9093C5
:10018000B000F0E0EE0FFF1FE458FF4FA591B491CF
:100190009FB7F894811104C08C912095282302C048
:1001A000EC912E2B2C939FBF0895CF93DF93EFE913
:1001B000F0E09491EBE8F0E02491222361F130E04B
:1001C000220F331FF901EE58FF4FA591B491F901A9
:1001D000E458FF4FC591D491811109C02FB7F8940D
:1001E0008C91909589238C93E8819E230BC082305B
:1001F00061F42FB7F8948C91392F309583238C9329
:10020000E8819E2B98832FBF06C08FB7F894EC919E
:100210009E2B9C938FBFDF91CF9108958E3008F075
:100220008E508770806480937C0080917A00806417
:1002300080937A0080917A0086FDFCCF80917800CF
:100240002091790090E0922B08953FB7F894809127
:100250008E0190918F01A0919001B091910126B5EE
:10026000A89B05C02F3F19F00196A11DB11D3FBFEE
:10027000BA2FA92F982F8827820F911DA11DB11D7C
:10028000BC01CD0142E0660F771F881F991F4A9578
:10029000D1F708958F929F92AF92BF92CF92DF9243
:1002A000EF92FF926B017C010E9425014B015C01E2
:1002B000C114D104E104F104F1F00E942501DC0134
:1002C000CB0188199909AA09BB09883E9340A10569
:1002D000B10570F321E0C21AD108E108F10888EEF7
:1002E000880E83E0981EA11CB11CC114D104E10446
:1002F000F10419F7DDCFFF90EF90DF90CF90BF9022
:10030000AF909F908F900895CF92DF92EF92FF92DF
:100310000F931F93CF93DF936C017A018B01C0E0A1
:10032000D0E0CE15DF0581F0D8016D918D01D601A9
:10033000ED91FC910190F081E02DC6010995892B8A
:1003400011F02196EECF7E01C701DF91CF911F9171
:100350000F91FF90EF90DF90CF900895089580E087
:1003600090E00895FC01538D448D252F30E0842FBB
:1003700090E0821B930B541710F0CF9608950197CD
:100380000895FC01918D828D981761F0828DDF01B7
:10039000A80FB11D5D968C91928D9F5F9F73928F78
:1003A00090E008958FEF9FEF0895FC01918D828D6D
:1003B000981731F0828DE80FF11D858D90E008953A
:1003C0008FEF9FEF0895FC01918D228D892F90E092
:1003D000805C9F4F821B91098F739927089582E952
:1003E00091E00E94E30121E0892B09F420E0822FB3
:1003F0000895FC01848DDF01A80FB11DA35ABF4FE2
:100400002C91848D90E001968F739927848FA68913
:10041000B7892C93A089B1898C91837080648C9367
:10042000938D848D981306C00288F389E02D808116
:100430008F7D80830895EF92FF920F931F93CF9348
:10044000DF93EC0181E0888F9B8D8C8D981305C024
:10045000E889F989808185FD26C0F62E0B8D10E094
:100460000F5F1F4F0F731127E02E8C8DE8120CC009
:100470000FB607FCFACFE889F989808185FFF5CFAF
:10048000CE010E94F901F1CF8B8DFE01E80FF11D25
:10049000E35AFF4FF0829FB7F8940B8FEA89FB89EC
:1004A000808180620AC09FB7F894EE89FF896083DB
:1004B000E889F98980818370806480839FBF81E0AF
:1004C00090E0DF91CF911F910F91FF90EF900895F1
:1004D000CF93DF93EC01888D8823C9F0EA89FB89EB
:1004E000808185FD05C0A889B9898C9186FD0FC0E2
:1004F0000FB607FCF5CF808185FFF2CFA889B989B7
:100500008C9185FFEDCFCE010E94F901E7CFDF91FD
:10051000CF91089580E090E0892B29F00E94EF01AF
:1005200081110C9400000895009769F0FC0101907E
:100530000020E9F73197AF01481B590BBC0182E954
:1005400091E00C94840180E090E008958F929F9256
:10055000AF92BF92CF92DF92EF92FF920F931F93D1
:10056000CF93DF93CDB7DEB7A1970FB6F894DEBF78
:100570000FBECDBF6B017C0197FF2BC06DE282E9FE
:1005800091E00E941B028C0122273327A9012C191C
:100590003D094E095F0919A2CE0181967C019AE0BE
:1005A000892E912CA12CB12CCA01B901A50194016D
:1005B0000E946006605DF70162937F01211531059D
:1005C0004105510589F7CF010E949402800F911FC8
:1005D0001DC09B01AC0119A28E010F5D1F4F8AE067
:1005E000C82ED12CE12CF12CCA01B901A70196012A
:1005F0000E946006605DF80162938F01211531054C
:100600004105510589F7CF010E949402A1960FB6CA
:10061000F894DEBF0FBECDBFDF91CF911F910F9138
:10062000FF90EF90DF90CF90BF90AF909F908F9012
:1006300008950E94DB061F920F920FB60F921124AD
:100640002F933F938F939F93AF93BF9380918A0192
:1006500090918B01A0918C01B0918D013091890115
:1006600023E0230F2D3720F40196A11DB11D05C0F5
:1006700026E8230F0296A11DB11D209389018093C6
:100680008A0190938B01A0938C01B0938D0180918E
:100690008E0190918F01A0919001B09191010196EE
:1006A000A11DB11D80938E0190938F01A0939001A5
:1006B000B0939101BF91AF919F918F913F912F91F5
:1006C0000F900FBE0F901F9018951F920F920FB6AC
:1006D0000F9211242F933F934F935F936F937F93C8
:1006E0008F939F93AF93BF93EF93FF9382E991E032
:1006F0000E94F901FF91EF91BF91AF919F918F916E
:100700007F916F915F914F913F912F910F900FBE0D
:100710000F901F9018951F920F920FB60F921124F1
:100720002F938F939F93EF93FF93E091A201F0910A
:10073000A3018081E091A801F091A90182FD12C07E
:1007400090818091AB018F5F8F732091AC018217F4
:1007500051F0E091AB01F0E0EE56FE4F958F8093A3
:10076000AB0101C08081FF91EF919F918F912F91FB
:100770000F900FBE0F901F901895CF93DF93CDB7BA
:10078000DEB762970FB6F894DEBF0FBECDBF789488
:1007900084B5826084BD84B5816084BD85B5826086
:1007A00085BD85B5816085BD80916E008160809337
:1007B0006E001092810080918100826080938100A0
:1007C00080918100816080938100809180008160B0
:1007D000809380008091B10084608093B10080910B
:1007E000B00081608093B00080917A008460809333
:1007F0007A0080917A00826080937A0080917A00FA
:10080000816080937A0080917A00806880937A007A
:100810001092C100E091A201F091A30182E08083D7
:10082000E0919E01F0919F011082E091A001F09172
:10083000A1018FEC80831092AA01E091A601F091B2
:10084000A70186E08083E091A401F091A501808159
:1008500080618083E091A401F091A501808188608E
:100860008083E091A401F091A5018081806880835C
:10087000E091A401F091A50180818F7D8083EFE953
:10088000F0E01491EBE8F0E08491E82FF0E0EE0F57
:10089000FF1FE859FF4FC590D49081E00E94D5001A
:1008A00080E00E948C0062E170E080E090E00E94B5
:1008B0004A0181E00E948C0080E00E94D50080E225
:1008C00093E0D6012C91212319F00197D1F754C060
:1008D00080E991E0F6012081212319F40197D1F7F5
:1008E0004BC080E991E0D6012C91212319F00197AA
:1008F000D1F742C0F12CF0E0E0E8EE2E40E050E00D
:1009000080E991E020E931E060E0E8E2D6010C9175
:10091000012339F5662329F1E83269F48217930738
:1009200008F49C0140E951E0421B530B5695479552
:100930005695479507C0B901641B750B6817790771
:1009400008F0FE29E69451F4AF2DB0E0AC5DBE4F47
:100950001896FC93F394F0E060E8E62EE15080E90D
:1009600091E0019749F0602FE111D0CF81E00E9422
:10097000D50081E00E948C0010912C011F7710930C
:100980002C0100912E010F7700932E01612F70E052
:1009900080E090E00E94910660932401709325010D
:1009A0008093260190932701602F70E080E090E013
:1009B0000E949106609328017093290180932A0177
:1009C00090932B01A02EB12C812E912C8EE00E94B1
:1009D0000E0124E630E0DC010E94CE062FEF33E06A
:1009E00040E050E00E94410669017A018FE00E94D8
:1009F0000E0124E630E0DC010E94CE062FEF33E04A
:100A000040E050E00E9441064DE6242E41E0342EA5
:100A1000E9E5F1E0FC87EB8765E471E07A876987B7
:100A200081E391E09A8389832C01DB013F01C101BD
:100A300009E010E001501109FC0160897189738B94
:100A4000628BF30160897189738B628B50966D9113
:100A50007C91519753967C936E935297F2016089E3
:100A60007189738B628B0297F2E06F1A710812978B
:100A700062E0461A510801151105E1F6B0926E01C7
:100A8000A0926D0190925A0180925901D092460134
:100A9000C09245013093320120933101812C912C79
:100AA0005401C12CD12C76011D821E821F82188612
:100AB00060E070E0CB01D1010D911D911D01012E6F
:100AC000000C220B330B600F711F821F931FEB85ED
:100AD000FC8501911191FC87EB872801110F6608B5
:100AE00077082D813E814F815885240D351D461D87
:100AF000571D2D833E834F835887A985BA850D9155
:100B00001D91BA87A987012E000C220B330BC00E52
:100B1000D11EE21EF31EE981FA8101911191FA833F
:100B2000E983012E000C220B330B800E911EA21EB6
:100B3000B31E21E8422E21E0522E4214530409F044
:100B4000BACF2AE030E040E050E00E94410629019F
:100B50003A0130938801209387016D817E818F81D6
:100B600098852AE030E040E050E00E944106309352
:100B7000860120938501C701B6012AE030E040E0FC
:100B800050E00E9441063093840120938301C50107
:100B9000B4012AE030E040E050E00E94410630938A
:100BA000820120938101B201550C880B990B0E94A0
:100BB000A60282E191E00E94940260918501709109
:100BC0008601072E000C880B990B0E94A60287E174
:100BD00091E00E9494026091830170918401072E3C
:100BE000000C880B990B0E94A60287E191E00E94FD
:100BF00094026091810170918201072E000C880B94
:100C0000990B0E94A6028CE191E00E94940281E27D
:100C100091E00E9494026FE070E080E090E00E941A
:100C20004A010E948A022BCEE2E9F1E0138212828D
:100C300088EE93E0A0E0B0E084839583A683B78339
:100C400084E091E09183808385EC90E095878487B0
:100C500084EC90E09787868780EC90E0918B808B86
:100C600081EC90E0938B828B82EC90E0958B848B6F
:100C700086EC90E0978B868B118E128E138E148EDD
:100C80000895052E97FB1EF400940E94580657FD08
:100C900007D00E94600607FC03D04EF40C9458065F
:100CA00050954095309521953F4F4F4F5F4F089598
:100CB00090958095709561957F4F8F4F9F4F0895C8
:100CC000A1E21A2EAA1BBB1BFD010DC0AA1FBB1F50
:100CD000EE1FFF1FA217B307E407F50720F0A21BC2
:100CE000B30BE40BF50B661F771F881F991F1A942F
:100CF00069F760957095809590959B01AC01BD0159
:100D0000CF010895A29FB001B39FC001A39F700DB2
:100D1000811D1124911DB29F700D811D1124911D03
:100D20000895E89409C097FB3EF4909580957095DE
:100D300061957F4F8F4F9F4F9923A9F0F92F96E927
:100D4000BB279395F695879577956795B795F1119C
:100D5000F8CFFAF4BB0F11F460FF1BC06F5F7F4F39
:100D60008F4F9F4F16C0882311F096E911C077234B
:100D700021F09EE8872F762F05C0662371F096E854
:100D8000862F70E060E02AF09A95660F771F881F23
:100D9000DAF7880F9695879597F908950E9482064D
:100DA000B7FF0895821B930B0895EE0FFF1F059068
:100DB000F491E02D099481E090E0F8940C94E00621
:040DC000F894FFCFD5
:100DC400000000001B028401B2016802E301C101BA
:100DD400D50120432009002025200900206C757AC4
:040DE400000D0A00F4
:00000001FF
